:03000000020BD61A
:0C0BD600787FE4F6D8FD758179020C1DD3
:100C6200081E47475247524752470826594752479C
:100C720052475247092E5247524759475247300866
:100C8200375247524747475247093F5247524759FF
:100C9200475247310948524752475247594730084D
:100CA20051524752475247474709595247524752B2
:100CB2004759473108625259525952595259086A92
:100CC200525252525252525208085959525952597A
:100CD200525908105959595959595959031800006C
:060CE2001E031B00001EB2
:10080000E4F580F590F5A0F5B07575007576007586
:10081000771E120CE9EF64014E7030120AAE120D11
:100820008130A003020A7320A00920A33F30A20355
:10083000020A4B20A70620A50330A60C751B0075E5
:100840001C00751D26020AA2020A977575007576AE
:1008500000757726120CE9EF64014E701E120AAE85
:10086000120DC020A00620A30330A203020A4B757C
:100870001B00751C00751D2E020AA2757500757689
:100880000075772E757800757909120CEFEF640109
:100890004E7012120AAE120DC020A00620A3033023
:1008A000A242020A4B757500757600757737120CF7
:1008B000E9EF64014E7030120AAE120D8130A203CE
:1008C000020A7A20A20920A30330A003020A4B20C7
:1008D000A70620A50330A60C751B00751C00751D0E
:1008E0003F020AA2020A7C75750075760075773F93
:1008F000757800757909120CEFEF64014E701E12C5
:100900000AAE120DC020A00620A30330A203020AE3
:100910004B751B00751C00751D48020AA2757500F9
:10092000757600757748757800757909120CEFEFC8
:1009300064014E7012120AAE120DC020A00620A350
:100940000330A242020A4B75750075760075775127
:10095000120CE9EF64014E7030120AAE120D8130B4
:10096000A303020A8A20A30920A20330A003020ADB
:100970004B20A70620A50330A60C751B00751C0094
:10098000751D59020AA2020A8C75750075760075EC
:100990007759757800757909120CEFEF64014E7084
:1009A0001E120AAE120DC020A00620A30330A2031F
:1009B000020A4B751B00751C00751D62020AA275A8
:1009C0007500757600757762120CE9EF64014E7060
:1009D00012120AAE120DC020A00620A30330A23EC0
:1009E000020A4B75750075760075776A120CE9EF8F
:1009F00064014E7035120AAE120D8130A30620A29A
:100A00000330A002804520A70920A50620A60330B8
:100A1000A40C751B00751C00751D08020AA2751B2D
:100A200000751C00751D6A020AA2757500757600B6
:100A3000757708120CE9EF64014E701C120AAE12B1
:100A40000DC020A00620A30330A20B751B00751C4F
:100A500000751D10804C803F7575007576007577A8
:100A600010120CE9EF64014E702F120AAE120DF154
:100A700030A004C2A0802230A20DC2A2751B007556
:100A80001C00751D37801B30A30DC2A3751B00759C
:100A90001C00751D51800B8000751B00751C0075B6
:0E0AA0001D1E851B18851C19851D1A020809CC
:060AAE00AB18AA19A91AF9
:100AB400E4F580F590F5B0120D3BFFB45204D290EA
:100AC4008016EFB45904D291800EEFB44704D29249
:100AD4008006D290D291D292900001120D54FFB4AC
:100AE4005204D2938016EFB45904D294800EEFB41A
:100AF4004704D2958006D293D294D29590000212E4
:100B04000D54FFB45204D2B08016EFB45904D2B1DC
:100B1400800EEFB44704D2B28006D2B0D2B1D2B2C2
:100B2400900003120D54FFB45204D2B38016EFB4F4
:100B34005904D2B4800EEFB44704D2B58006D2B3C0
:100B4400D2B4D2B5900004120D54FFB45204D2862C
:100B54008016EFB45904D296800EEFB44704D2B68F
:100B64008006D286D296D2B6900005120D54FFB4F8
:100B74005204D2878016EFB45904D297800EEFB492
:100B84004704D2B78006D287D297D2B79000061214
:100B94000D54FFB45204D2808016EFB45904D281AC
:100BA400800EEFB44704D2828006D280D281D282F2
:100BB400900007120D54FFB45203D28322EFB459AC
:100BC40003D28422EFB44703D28522D283D284D2C3
:020BD400852278
:0C0CE900757800757908AB18AA19A91AD3
:060CF5008B728A73897402
:100CFB00E4FFFEC3EF9579E5786480F8EE648098A5
:100D0B005029AB75AA76A9778F828E83120D54FD6D
:100D1B00AB72AA73A9748F828E83120D546D60040B
:0F0D2B00E4FEFF220FBF00010E80C87E007F0193
:010D3A002296
:100D81007C007D05ED1DAA0470011C4A60307E00C7
:100D91007F2BEF1FAA0670011E4A60E87589017555
:100DA1008AD4758C04D28C208D0E20A00620A2033B
:0E0DB10030A3F4C28CC28D22C28CC28D80D4BD
:010DBF002211
:100DC0007F2B7E00EF1FAC0670011E4C60227589E0
:100DD00001758AD4758C04D28C208D0E20A006203B
:100DE000A20330A3F4C28CC28D22C28CC28D80D4E7
:010DF00022E0
:100DF1007F2B7E00EF1FAC0670011E4C60147589BD
:100E010001758AD4758C04D28C308DFDC28CC28D53
:020E110080E27D
:010E130022BC
:100BE200020800E493A3F8E493A34003F68001F221
:100BF20008DFF48029E493A3F85407240CC8C33314
:100C0200C4540F4420C8834004F456800146F6DFE2
:100C1200E4800B0102040810204080900C62E47E04
:100C2200019360BCA3FF543F30E509541FFEE493D7
:100C3200A360010ECF54C025E060A840B8E493A39E
:100C4200FAE493A3F8E493A3C8C582C8CAC583CAC9
:100C5200F0A3C8C582C8CAC583CADFE9DEE780BE81
:010CE800000B
:100D3B00BB010689828A83E0225002E722BBFE02B6
:090D4B00E32289828A83E49322E9
:100D5400BB010CE58229F582E5833AF583E0225054
:100D640006E92582F8E622BBFE06E92582F8E2229E
:0D0D7400E58229F582E5833AF583E49322B8
:00000001FF
